{
  "_format": "hh-sol-artifact-1",
  "contractName": "AESPool",
  "sourceName": "contracts/AESPool_rEther.sol",
  "abi": [
    {
      "inputs": [],
      "stateMutability": "nonpayable",
      "type": "constructor"
    },
    {
      "inputs": [
        {
          "internalType": "uint256",
          "name": "percent",
          "type": "uint256"
        }
      ],
      "name": "ChangeDistributionPercentage",
      "outputs": [],
      "stateMutability": "nonpayable",
      "type": "function"
    },
    {
      "inputs": [],
      "name": "CollectRewards",
      "outputs": [],
      "stateMutability": "nonpayable",
      "type": "function"
    },
    {
      "inputs": [],
      "name": "DistributionPercentage",
      "outputs": [
        {
          "internalType": "uint256",
          "name": "",
          "type": "uint256"
        }
      ],
      "stateMutability": "view",
      "type": "function"
    },
    {
      "inputs": [
        {
          "internalType": "uint256",
          "name": "number",
          "type": "uint256"
        },
        {
          "internalType": "uint256",
          "name": "percent",
          "type": "uint256"
        }
      ],
      "name": "FindPercentage",
      "outputs": [
        {
          "internalType": "uint256",
          "name": "result",
          "type": "uint256"
        }
      ],
      "stateMutability": "pure",
      "type": "function"
    },
    {
      "inputs": [],
      "name": "GetMATICBalance",
      "outputs": [
        {
          "internalType": "uint256",
          "name": "maticBal",
          "type": "uint256"
        }
      ],
      "stateMutability": "view",
      "type": "function"
    },
    {
      "inputs": [
        {
          "internalType": "uint256",
          "name": "id",
          "type": "uint256"
        }
      ],
      "name": "GetStakerById",
      "outputs": [
        {
          "internalType": "address",
          "name": "user",
          "type": "address"
        }
      ],
      "stateMutability": "view",
      "type": "function"
    },
    {
      "inputs": [],
      "name": "GetStakersLength",
      "outputs": [
        {
          "internalType": "uint256",
          "name": "count",
          "type": "uint256"
        }
      ],
      "stateMutability": "view",
      "type": "function"
    },
    {
      "inputs": [
        {
          "internalType": "address",
          "name": "user",
          "type": "address"
        }
      ],
      "name": "IsUserStaking",
      "outputs": [
        {
          "internalType": "bool",
          "name": "staking",
          "type": "bool"
        }
      ],
      "stateMutability": "view",
      "type": "function"
    },
    {
      "inputs": [
        {
          "internalType": "uint256",
          "name": "amount",
          "type": "uint256"
        }
      ],
      "name": "RemoveFromRewardTokenHoldingAmount",
      "outputs": [],
      "stateMutability": "nonpayable",
      "type": "function"
    },
    {
      "inputs": [],
      "name": "Stake",
      "outputs": [],
      "stateMutability": "payable",
      "type": "function"
    },
    {
      "inputs": [],
      "name": "TotalStakingBalance",
      "outputs": [
        {
          "internalType": "uint256",
          "name": "result",
          "type": "uint256"
        }
      ],
      "stateMutability": "view",
      "type": "function"
    },
    {
      "inputs": [],
      "name": "Unstake",
      "outputs": [],
      "stateMutability": "nonpayable",
      "type": "function"
    },
    {
      "inputs": [
        {
          "internalType": "address",
          "name": "user",
          "type": "address"
        },
        {
          "internalType": "uint256",
          "name": "amount",
          "type": "uint256"
        }
      ],
      "name": "UpdateRewardBalance",
      "outputs": [],
      "stateMutability": "nonpayable",
      "type": "function"
    },
    {
      "inputs": [
        {
          "internalType": "uint256",
          "name": "amount",
          "type": "uint256"
        }
      ],
      "name": "UpdateRewardTokenHoldingAmount",
      "outputs": [],
      "stateMutability": "nonpayable",
      "type": "function"
    },
    {
      "inputs": [],
      "name": "WithdrawAES",
      "outputs": [],
      "stateMutability": "nonpayable",
      "type": "function"
    },
    {
      "inputs": [],
      "name": "aesToken",
      "outputs": [
        {
          "internalType": "address",
          "name": "",
          "type": "address"
        }
      ],
      "stateMutability": "view",
      "type": "function"
    },
    {
      "inputs": [],
      "name": "aesTokenHoldingAmount",
      "outputs": [
        {
          "internalType": "uint256",
          "name": "",
          "type": "uint256"
        }
      ],
      "stateMutability": "view",
      "type": "function"
    },
    {
      "inputs": [
        {
          "internalType": "address",
          "name": "",
          "type": "address"
        }
      ],
      "name": "isStaking",
      "outputs": [
        {
          "internalType": "bool",
          "name": "",
          "type": "bool"
        }
      ],
      "stateMutability": "view",
      "type": "function"
    },
    {
      "inputs": [],
      "name": "name",
      "outputs": [
        {
          "internalType": "string",
          "name": "",
          "type": "string"
        }
      ],
      "stateMutability": "view",
      "type": "function"
    },
    {
      "inputs": [
        {
          "internalType": "address",
          "name": "",
          "type": "address"
        }
      ],
      "name": "rewardBalance",
      "outputs": [
        {
          "internalType": "uint256",
          "name": "",
          "type": "uint256"
        }
      ],
      "stateMutability": "view",
      "type": "function"
    },
    {
      "inputs": [
        {
          "internalType": "address",
          "name": "addr",
          "type": "address"
        }
      ],
      "name": "setAESAddress",
      "outputs": [],
      "stateMutability": "nonpayable",
      "type": "function"
    },
    {
      "inputs": [
        {
          "internalType": "uint256",
          "name": "",
          "type": "uint256"
        }
      ],
      "name": "stakers",
      "outputs": [
        {
          "internalType": "address",
          "name": "",
          "type": "address"
        }
      ],
      "stateMutability": "view",
      "type": "function"
    },
    {
      "inputs": [
        {
          "internalType": "address",
          "name": "",
          "type": "address"
        }
      ],
      "name": "stakingBalance",
      "outputs": [
        {
          "internalType": "uint256",
          "name": "",
          "type": "uint256"
        }
      ],
      "stateMutability": "view",
      "type": "function"
    },
    {
      "stateMutability": "payable",
      "type": "receive"
    }
  ],
  "bytecode": "0x60806040526040518060600160405280602381526020016200260260239139600090805190602001906200003592919062000090565b5060016008553480156200004857600080fd5b5033600260006101000a81548173ffffffffffffffffffffffffffffffffffffffff021916908373ffffffffffffffffffffffffffffffffffffffff160217905550620001a5565b8280546200009e9062000140565b90600052602060002090601f016020900481019282620000c257600085556200010e565b82601f10620000dd57805160ff19168380011785556200010e565b828001600101855582156200010e579182015b828111156200010d578251825591602001919060010190620000f0565b5b5090506200011d919062000121565b5090565b5b808211156200013c57600081600090555060010162000122565b5090565b600060028204905060018216806200015957607f821691505b6020821081141562000170576200016f62000176565b5b50919050565b7f4e487b7100000000000000000000000000000000000000000000000000000000600052602260045260246000fd5b61244d80620001b56000396000f3fe6080604052600436106101445760003560e01c80638068b9a3116100b6578063d97373701161006f578063d973737014610457578063de20bc921461046e578063e1f179d614610478578063f53822c3146104b5578063fd5e6dd1146104de578063fe4299e51461051b5761014b565b80638068b9a314610359578063874db664146103965780639a6cf385146103c1578063a044c4d7146103d8578063a438361014610403578063bf0804f01461042c5761014b565b8063688a8f6f11610108578063688a8f6f1461024b5780636f49712b146102885780637538eecf146102c557806378e62cdb146102dc5780637ddbb7b4146103055780637e248c791461032e5761014b565b806306fdde0314610150578063381690551461017b57806341ce55d7146101a657806345bc78ab146101d157806367b40cf71461020e5761014b565b3661014b57005b600080fd5b34801561015c57600080fd5b50610165610544565b6040516101729190611ff3565b60405180910390f35b34801561018757600080fd5b506101906105d2565b60405161019d9190611f34565b60405180910390f35b3480156101b257600080fd5b506101bb6105f8565b6040516101c891906120d5565b60405180910390f35b3480156101dd57600080fd5b506101f860048036038101906101f39190611b5c565b6106ee565b60405161020591906120d5565b60405180910390f35b34801561021a57600080fd5b5061023560048036038101906102309190611b5c565b610706565b60405161024291906120d5565b60405180910390f35b34801561025757600080fd5b50610272600480360381019061026d9190611bea565b61071e565b60405161027f9190611f34565b60405180910390f35b34801561029457600080fd5b506102af60048036038101906102aa9190611b5c565b6107e6565b6040516102bc9190611fd8565b60405180910390f35b3480156102d157600080fd5b506102da610806565b005b3480156102e857600080fd5b5061030360048036038101906102fe9190611b85565b610a25565b005b34801561031157600080fd5b5061032c60048036038101906103279190611bea565b610b93565b005b34801561033a57600080fd5b50610343610c04565b60405161035091906120d5565b60405180910390f35b34801561036557600080fd5b50610380600480360381019061037b9190611c3c565b610c0a565b60405161038d91906120d5565b60405180910390f35b3480156103a257600080fd5b506103ab610c2d565b6040516103b891906120d5565b60405180910390f35b3480156103cd57600080fd5b506103d6610c35565b005b3480156103e457600080fd5b506103ed611099565b6040516103fa91906120d5565b60405180910390f35b34801561040f57600080fd5b5061042a60048036038101906104259190611bea565b61109f565b005b34801561043857600080fd5b50610441611110565b60405161044e91906120d5565b60405180910390f35b34801561046357600080fd5b5061046c611177565b005b61047661146a565b005b34801561048457600080fd5b5061049f600480360381019061049a9190611b5c565b61160d565b6040516104ac9190611fd8565b60405180910390f35b3480156104c157600080fd5b506104dc60048036038101906104d79190611b5c565b611663565b005b3480156104ea57600080fd5b5061050560048036038101906105009190611bea565b611701565b6040516105129190611f34565b60405180910390f35b34801561052757600080fd5b50610542600480360381019061053d9190611bea565b611740565b005b60008054610551906122b9565b80601f016020809104026020016040519081016040528092919081815260200182805461057d906122b9565b80156105ca5780601f1061059f576101008083540402835291602001916105ca565b820191906000526020600020905b8154815290600101906020018083116105ad57829003601f168201915b505050505081565b600160009054906101000a900473ffffffffffffffffffffffffffffffffffffffff1681565b6000806000905060005b6003805490508110156106d357600460006003838154811061064d577f4e487b7100000000000000000000000000000000000000000000000000000000600052603260045260246000fd5b9060005260206000200160009054906101000a900473ffffffffffffffffffffffffffffffffffffffff1673ffffffffffffffffffffffffffffffffffffffff1673ffffffffffffffffffffffffffffffffffffffff16815260200190815260200160002054826106be9190612117565b915080806106cb906122eb565b915050610602565b50670de0b6b3a7640000816106e8919061216d565b91505090565b60046020528060005260406000206000915090505481565b60056020528060005260406000206000915090505481565b6000600260009054906101000a900473ffffffffffffffffffffffffffffffffffffffff1673ffffffffffffffffffffffffffffffffffffffff163373ffffffffffffffffffffffffffffffffffffffff161461077a57600080fd5b600382815481106107b4577f4e487b7100000000000000000000000000000000000000000000000000000000600052603260045260246000fd5b9060005260206000200160009054906101000a900473ffffffffffffffffffffffffffffffffffffffff169050919050565b60066020528060005260406000206000915054906101000a900460ff1681565b60003390506000600460008373ffffffffffffffffffffffffffffffffffffffff1673ffffffffffffffffffffffffffffffffffffffff16815260200190815260200160002054905060008111610892576040517f08c379a000000000000000000000000000000000000000000000000000000000815260040161088990612075565b60405180910390fd5b60006108a0826101f4610c0a565b9050600081836108b091906121f8565b90506000808573ffffffffffffffffffffffffffffffffffffffff16836040516108d990611f1f565b60006040518083038185875af1925050503d8060008114610916576040519150601f19603f3d011682016040523d82523d6000602084013e61091b565b606091505b509150915081610960576040517f08c379a000000000000000000000000000000000000000000000000000000000815260040161095790612095565b60405180910390fd5b6000600460008873ffffffffffffffffffffffffffffffffffffffff1673ffffffffffffffffffffffffffffffffffffffff1681526020019081526020016000208190555060006109b0876117e9565b90506109bb816118b9565b6000600660008973ffffffffffffffffffffffffffffffffffffffff1673ffffffffffffffffffffffffffffffffffffffff16815260200190815260200160002060006101000a81548160ff021916908315150217905550610a1c85611a33565b50505050505050565b600260009054906101000a900473ffffffffffffffffffffffffffffffffffffffff1673ffffffffffffffffffffffffffffffffffffffff163373ffffffffffffffffffffffffffffffffffffffff1614610a7f57600080fd5b6000600460008473ffffffffffffffffffffffffffffffffffffffff1673ffffffffffffffffffffffffffffffffffffffff1681526020019081526020016000205411610b01576040517f08c379a0000000000000000000000000000000000000000000000000000000008152600401610af890612015565b60405180910390fd5b80600560008473ffffffffffffffffffffffffffffffffffffffff1673ffffffffffffffffffffffffffffffffffffffff16815260200190815260200160002054610b4c9190612117565b600560008473ffffffffffffffffffffffffffffffffffffffff1673ffffffffffffffffffffffffffffffffffffffff168152602001908152602001600020819055505050565b600260009054906101000a900473ffffffffffffffffffffffffffffffffffffffff1673ffffffffffffffffffffffffffffffffffffffff163373ffffffffffffffffffffffffffffffffffffffff1614610bed57600080fd5b80600754610bfb9190612117565b60078190555050565b60075481565b60006127108284610c1b919061219e565b610c25919061216d565b905092915050565b600047905090565b600260009054906101000a900473ffffffffffffffffffffffffffffffffffffffff1673ffffffffffffffffffffffffffffffffffffffff163373ffffffffffffffffffffffffffffffffffffffff1614610c8f57600080fd5b6000600160009054906101000a900473ffffffffffffffffffffffffffffffffffffffff1673ffffffffffffffffffffffffffffffffffffffff166370a08231306040518263ffffffff1660e01b8152600401610cec9190611f34565b60206040518083038186803b158015610d0457600080fd5b505afa158015610d18573d6000803e3d6000fd5b505050506040513d601f19601f82011682018060405250810190610d3c9190611c13565b905060008111610d81576040517f08c379a0000000000000000000000000000000000000000000000000000000008152600401610d7890612035565b60405180910390fd5b600160009054906101000a900473ffffffffffffffffffffffffffffffffffffffff1673ffffffffffffffffffffffffffffffffffffffff1663095ea7b33060006040518363ffffffff1660e01b8152600401610ddf929190611f86565b602060405180830381600087803b158015610df957600080fd5b505af1158015610e0d573d6000803e3d6000fd5b505050506040513d601f19601f82011682018060405250810190610e319190611bc1565b50600160009054906101000a900473ffffffffffffffffffffffffffffffffffffffff1673ffffffffffffffffffffffffffffffffffffffff1663095ea7b330836040518363ffffffff1660e01b8152600401610e8f929190611faf565b602060405180830381600087803b158015610ea957600080fd5b505af1158015610ebd573d6000803e3d6000fd5b505050506040513d601f19601f82011682018060405250810190610ee19190611bc1565b506000600160009054906101000a900473ffffffffffffffffffffffffffffffffffffffff1673ffffffffffffffffffffffffffffffffffffffff166323b872dd30600260009054906101000a900473ffffffffffffffffffffffffffffffffffffffff16856040518463ffffffff1660e01b8152600401610f6593929190611f4f565b602060405180830381600087803b158015610f7f57600080fd5b505af1158015610f93573d6000803e3d6000fd5b505050506040513d601f19601f82011682018060405250810190610fb79190611bc1565b9050801561109557600060078190555060005b6003805490508110156110935760006005600060038481548110611017577f4e487b7100000000000000000000000000000000000000000000000000000000600052603260045260246000fd5b9060005260206000200160009054906101000a900473ffffffffffffffffffffffffffffffffffffffff1673ffffffffffffffffffffffffffffffffffffffff1673ffffffffffffffffffffffffffffffffffffffff16815260200190815260200160002081905550808061108b906122eb565b915050610fca565b505b5050565b60085481565b600260009054906101000a900473ffffffffffffffffffffffffffffffffffffffff1673ffffffffffffffffffffffffffffffffffffffff163373ffffffffffffffffffffffffffffffffffffffff16146110f957600080fd5b8060075461110791906121f8565b60078190555050565b6000600260009054906101000a900473ffffffffffffffffffffffffffffffffffffffff1673ffffffffffffffffffffffffffffffffffffffff163373ffffffffffffffffffffffffffffffffffffffff161461116c57600080fd5b600380549050905090565b60003390506000600560008373ffffffffffffffffffffffffffffffffffffffff1673ffffffffffffffffffffffffffffffffffffffff16815260200190815260200160002054905060008111611203576040517f08c379a00000000000000000000000000000000000000000000000000000000081526004016111fa90612055565b60405180910390fd5b600160009054906101000a900473ffffffffffffffffffffffffffffffffffffffff1673ffffffffffffffffffffffffffffffffffffffff1663095ea7b33060006040518363ffffffff1660e01b8152600401611261929190611f86565b602060405180830381600087803b15801561127b57600080fd5b505af115801561128f573d6000803e3d6000fd5b505050506040513d601f19601f820116820180604052508101906112b39190611bc1565b50600160009054906101000a900473ffffffffffffffffffffffffffffffffffffffff1673ffffffffffffffffffffffffffffffffffffffff1663095ea7b330836040518363ffffffff1660e01b8152600401611311929190611faf565b602060405180830381600087803b15801561132b57600080fd5b505af115801561133f573d6000803e3d6000fd5b505050506040513d601f19601f820116820180604052508101906113639190611bc1565b506000600160009054906101000a900473ffffffffffffffffffffffffffffffffffffffff1673ffffffffffffffffffffffffffffffffffffffff166323b872dd3085856040518463ffffffff1660e01b81526004016113c593929190611f4f565b602060405180830381600087803b1580156113df57600080fd5b505af11580156113f3573d6000803e3d6000fd5b505050506040513d601f19601f820116820180604052508101906114179190611bc1565b90508015611465576000600560008573ffffffffffffffffffffffffffffffffffffffff1673ffffffffffffffffffffffffffffffffffffffff168152602001908152602001600020819055505b505050565b600033905034600460008373ffffffffffffffffffffffffffffffffffffffff1673ffffffffffffffffffffffffffffffffffffffff168152602001908152602001600020546114ba9190612117565b600460008373ffffffffffffffffffffffffffffffffffffffff1673ffffffffffffffffffffffffffffffffffffffff16815260200190815260200160002081905550600660008273ffffffffffffffffffffffffffffffffffffffff1673ffffffffffffffffffffffffffffffffffffffff16815260200190815260200160002060009054906101000a900460ff1661160a576003819080600181540180825580915050600190039060005260206000200160009091909190916101000a81548173ffffffffffffffffffffffffffffffffffffffff021916908373ffffffffffffffffffffffffffffffffffffffff1602179055506001600660008373ffffffffffffffffffffffffffffffffffffffff1673ffffffffffffffffffffffffffffffffffffffff16815260200190815260200160002060006101000a81548160ff0219169083151502179055505b50565b6000600660008373ffffffffffffffffffffffffffffffffffffffff1673ffffffffffffffffffffffffffffffffffffffff16815260200190815260200160002060009054906101000a900460ff169050919050565b600260009054906101000a900473ffffffffffffffffffffffffffffffffffffffff1673ffffffffffffffffffffffffffffffffffffffff163373ffffffffffffffffffffffffffffffffffffffff16146116bd57600080fd5b80600160006101000a81548173ffffffffffffffffffffffffffffffffffffffff021916908373ffffffffffffffffffffffffffffffffffffffff16021790555050565b6003818154811061171157600080fd5b906000526020600020016000915054906101000a900473ffffffffffffffffffffffffffffffffffffffff1681565b600260009054906101000a900473ffffffffffffffffffffffffffffffffffffffff1673ffffffffffffffffffffffffffffffffffffffff163373ffffffffffffffffffffffffffffffffffffffff161461179a57600080fd5b806103e810156117df576040517f08c379a00000000000000000000000000000000000000000000000000000000081526004016117d6906120b5565b60405180910390fd5b8060088190555050565b600080600090505b6003805490508110156118b2578273ffffffffffffffffffffffffffffffffffffffff166003828154811061184f577f4e487b7100000000000000000000000000000000000000000000000000000000600052603260045260246000fd5b9060005260206000200160009054906101000a900473ffffffffffffffffffffffffffffffffffffffff1673ffffffffffffffffffffffffffffffffffffffff16141561189f57809150506118b4565b80806118aa906122eb565b9150506117f1565b505b919050565b6003805490508111156118cb57600080fd5b600360016003805490506118df91906121f8565b81548110611916577f4e487b7100000000000000000000000000000000000000000000000000000000600052603260045260246000fd5b9060005260206000200160009054906101000a900473ffffffffffffffffffffffffffffffffffffffff166003828154811061197b577f4e487b7100000000000000000000000000000000000000000000000000000000600052603260045260246000fd5b9060005260206000200160006101000a81548173ffffffffffffffffffffffffffffffffffffffff021916908373ffffffffffffffffffffffffffffffffffffffff16021790555060038054806119fb577f4e487b7100000000000000000000000000000000000000000000000000000000600052603160045260246000fd5b6001900381819060005260206000200160006101000a81549073ffffffffffffffffffffffffffffffffffffffff0219169055905550565b600080600260009054906101000a900473ffffffffffffffffffffffffffffffffffffffff1673ffffffffffffffffffffffffffffffffffffffff1683604051611a7c90611f1f565b60006040518083038185875af1925050503d8060008114611ab9576040519150601f19603f3d011682016040523d82523d6000602084013e611abe565b606091505b509150915081611b03576040517f08c379a0000000000000000000000000000000000000000000000000000000008152600401611afa90612095565b60405180910390fd5b505050565b600081359050611b17816123d2565b92915050565b600081519050611b2c816123e9565b92915050565b600081359050611b4181612400565b92915050565b600081519050611b5681612400565b92915050565b600060208284031215611b6e57600080fd5b6000611b7c84828501611b08565b91505092915050565b60008060408385031215611b9857600080fd5b6000611ba685828601611b08565b9250506020611bb785828601611b32565b9150509250929050565b600060208284031215611bd357600080fd5b6000611be184828501611b1d565b91505092915050565b600060208284031215611bfc57600080fd5b6000611c0a84828501611b32565b91505092915050565b600060208284031215611c2557600080fd5b6000611c3384828501611b47565b91505092915050565b60008060408385031215611c4f57600080fd5b6000611c5d85828601611b32565b9250506020611c6e85828601611b32565b9150509250929050565b611c818161222c565b82525050565b611c908161223e565b82525050565b611c9f81612274565b82525050565b6000611cb0826120f0565b611cba8185612106565b9350611cca818560208601612286565b611cd3816123c1565b840191505092915050565b6000611ceb603683612106565b91507f43616e6e6f742067697665207265776172647320746f2061207573657220776960008301527f7468206e696c207374616b696e672062616c616e6365000000000000000000006020830152604082019050919050565b6000611d51602883612106565b91507f54686520636f6e747261637473204145532062616c616e63652063616e6e6f7460008301527f206265207a65726f0000000000000000000000000000000000000000000000006020830152604082019050919050565b6000611db7602283612106565b91507f596f7572207265776172642062616c616e63652063616e6e6f74206265207a6560008301527f726f0000000000000000000000000000000000000000000000000000000000006020830152604082019050919050565b6000611e1d602383612106565b91507f596f7572207374616b696e672062616c616e63652063616e6e6f74206265207a60008301527f65726f00000000000000000000000000000000000000000000000000000000006020830152604082019050919050565b6000611e836000836120fb565b9150600082019050919050565b6000611e9d601483612106565b91507f4661696c656420746f2073656e64204d617469630000000000000000000000006000830152602082019050919050565b6000611edd601583612106565b91507f446973747269627574696f6e204f766572666c6f7700000000000000000000006000830152602082019050919050565b611f198161226a565b82525050565b6000611f2a82611e76565b9150819050919050565b6000602082019050611f496000830184611c78565b92915050565b6000606082019050611f646000830186611c78565b611f716020830185611c78565b611f7e6040830184611f10565b949350505050565b6000604082019050611f9b6000830185611c78565b611fa86020830184611c96565b9392505050565b6000604082019050611fc46000830185611c78565b611fd16020830184611f10565b9392505050565b6000602082019050611fed6000830184611c87565b92915050565b6000602082019050818103600083015261200d8184611ca5565b905092915050565b6000602082019050818103600083015261202e81611cde565b9050919050565b6000602082019050818103600083015261204e81611d44565b9050919050565b6000602082019050818103600083015261206e81611daa565b9050919050565b6000602082019050818103600083015261208e81611e10565b9050919050565b600060208201905081810360008301526120ae81611e90565b9050919050565b600060208201905081810360008301526120ce81611ed0565b9050919050565b60006020820190506120ea6000830184611f10565b92915050565b600081519050919050565b600081905092915050565b600082825260208201905092915050565b60006121228261226a565b915061212d8361226a565b9250827fffffffffffffffffffffffffffffffffffffffffffffffffffffffffffffffff0382111561216257612161612334565b5b828201905092915050565b60006121788261226a565b91506121838361226a565b92508261219357612192612363565b5b828204905092915050565b60006121a98261226a565b91506121b48361226a565b9250817fffffffffffffffffffffffffffffffffffffffffffffffffffffffffffffffff04831182151516156121ed576121ec612334565b5b828202905092915050565b60006122038261226a565b915061220e8361226a565b92508282101561222157612220612334565b5b828203905092915050565b60006122378261224a565b9050919050565b60008115159050919050565b600073ffffffffffffffffffffffffffffffffffffffff82169050919050565b6000819050919050565b600061227f8261226a565b9050919050565b60005b838110156122a4578082015181840152602081019050612289565b838111156122b3576000848401525b50505050565b600060028204905060018216806122d157607f821691505b602082108114156122e5576122e4612392565b5b50919050565b60006122f68261226a565b91507fffffffffffffffffffffffffffffffffffffffffffffffffffffffffffffffff82141561232957612328612334565b5b600182019050919050565b7f4e487b7100000000000000000000000000000000000000000000000000000000600052601160045260246000fd5b7f4e487b7100000000000000000000000000000000000000000000000000000000600052601260045260246000fd5b7f4e487b7100000000000000000000000000000000000000000000000000000000600052602260045260246000fd5b6000601f19601f8301169050919050565b6123db8161222c565b81146123e657600080fd5b50565b6123f28161223e565b81146123fd57600080fd5b50565b6124098161226a565b811461241457600080fd5b5056fea264697066735822122010c0d1914cdf162b2b0ab1a7c0c1e99da7d7a2621eb132a7b3eb9605e3ba20c964736f6c63430008000033414553205374616b696e6720506f6f6c20287265636569766520457468657229205631",
  "linkReferences": {},
  "deployedLinkReferences": {}
}